{
    "address": "0x4FBf2855eB6AB648228702356Bd726a7dfcCf101",
    "abi": [
        {
            "inputs": [
                {
                    "internalType": "address",
                    "name": "_adminAddress",
                    "type": "address"
                },
                {
                    "internalType": "address",
                    "name": "samotTokenAddress",
                    "type": "address"
                }
            ],
            "stateMutability": "nonpayable",
            "type": "constructor"
        },
        {
            "anonymous": false,
            "inputs": [
                {
                    "indexed": true,
                    "internalType": "address",
                    "name": "previousOwner",
                    "type": "address"
                },
                {
                    "indexed": true,
                    "internalType": "address",
                    "name": "newOwner",
                    "type": "address"
                }
            ],
            "name": "OwnershipTransferred",
            "type": "event"
        },
        {
            "anonymous": false,
            "inputs": [
                {
                    "indexed": false,
                    "internalType": "address",
                    "name": "payer",
                    "type": "address"
                },
                {
                    "indexed": false,
                    "internalType": "uint256",
                    "name": "amount",
                    "type": "uint256"
                },
                {
                    "indexed": false,
                    "internalType": "uint256",
                    "name": "paymentId",
                    "type": "uint256"
                },
                {
                    "indexed": false,
                    "internalType": "uint256",
                    "name": "date",
                    "type": "uint256"
                }
            ],
            "name": "PaymentDone",
            "type": "event"
        },
        {
            "inputs": [],
            "name": "admin",
            "outputs": [
                {
                    "internalType": "address",
                    "name": "",
                    "type": "address"
                }
            ],
            "stateMutability": "view",
            "type": "function"
        },
        {
            "inputs": [
                {
                    "internalType": "uint256",
                    "name": "_totalCost",
                    "type": "uint256"
                }
            ],
            "name": "buyItems",
            "outputs": [],
            "stateMutability": "nonpayable",
            "type": "function"
        },
        {
            "inputs": [],
            "name": "owner",
            "outputs": [
                {
                    "internalType": "address",
                    "name": "",
                    "type": "address"
                }
            ],
            "stateMutability": "view",
            "type": "function"
        },
        {
            "inputs": [],
            "name": "renounceOwnership",
            "outputs": [],
            "stateMutability": "nonpayable",
            "type": "function"
        },
        {
            "inputs": [],
            "name": "samotToken",
            "outputs": [
                {
                    "internalType": "contract IERC20",
                    "name": "",
                    "type": "address"
                }
            ],
            "stateMutability": "view",
            "type": "function"
        },
        {
            "inputs": [
                {
                    "internalType": "address",
                    "name": "_adminAddress",
                    "type": "address"
                }
            ],
            "name": "setAdminAddress",
            "outputs": [],
            "stateMutability": "nonpayable",
            "type": "function"
        },
        {
            "inputs": [
                {
                    "internalType": "address",
                    "name": "newOwner",
                    "type": "address"
                }
            ],
            "name": "transferOwnership",
            "outputs": [],
            "stateMutability": "nonpayable",
            "type": "function"
        },
        {
            "inputs": [],
            "name": "withdraw",
            "outputs": [],
            "stateMutability": "nonpayable",
            "type": "function"
        }
    ],
    "transactionHash": "0xc60c9bfcb9f7aa1d57f0969b1975bd36e87b4e1eb2606a8a1ad27654d258ab98",
    "args": [
        "0xBD45F1464a89E5202D38aeeAc5979701D2e7dF20",
        "0xd878E8365AA9a6e6aB82675B760A877C695865B9"
    ],
    "numDeployments": 1,
    "solcInputHash": "facc6a1fa50dc446a19239fa534f655a",
    "bytecode": "0x608060405260006004553480156200001657600080fd5b50604051620011fa380380620011fa83398181016040528101906200003c919062000223565b6200005c62000050620000ed60201b60201c565b620000f560201b60201c565b6001808190555081600360006101000a81548173ffffffffffffffffffffffffffffffffffffffff021916908373ffffffffffffffffffffffffffffffffffffffff16021790555080600260006101000a81548173ffffffffffffffffffffffffffffffffffffffff021916908373ffffffffffffffffffffffffffffffffffffffff16021790555050506200026a565b600033905090565b60008060009054906101000a900473ffffffffffffffffffffffffffffffffffffffff169050816000806101000a81548173ffffffffffffffffffffffffffffffffffffffff021916908373ffffffffffffffffffffffffffffffffffffffff1602179055508173ffffffffffffffffffffffffffffffffffffffff168173ffffffffffffffffffffffffffffffffffffffff167f8be0079c531659141344cd1fd0a4f28419497f9722a3daafe3b4186f6b6457e060405160405180910390a35050565b600080fd5b600073ffffffffffffffffffffffffffffffffffffffff82169050919050565b6000620001eb82620001be565b9050919050565b620001fd81620001de565b81146200020957600080fd5b50565b6000815190506200021d81620001f2565b92915050565b600080604083850312156200023d576200023c620001b9565b5b60006200024d858286016200020c565b925050602062000260858286016200020c565b9150509250929050565b610f80806200027a6000396000f3fe608060405234801561001057600080fd5b50600436106100885760003560e01c80638da5cb5b1161005b5780638da5cb5b146100d957806398561cdb146100f7578063f2fde38b14610115578063f851a4401461013157610088565b80632c1e816d1461008d5780633ccfd60b146100a9578063631f6d07146100b3578063715018a6146100cf575b600080fd5b6100a760048036038101906100a29190610967565b61014f565b005b6100b161020f565b005b6100cd60048036038101906100c891906109ca565b61038f565b005b6100d7610643565b005b6100e16106cb565b6040516100ee9190610a06565b60405180910390f35b6100ff6106f4565b60405161010c9190610a80565b60405180910390f35b61012f600480360381019061012a9190610967565b61071a565b005b610139610812565b6040516101469190610a06565b60405180910390f35b610157610838565b73ffffffffffffffffffffffffffffffffffffffff166101756106cb565b73ffffffffffffffffffffffffffffffffffffffff16146101cb576040517f08c379a00000000000000000000000000000000000000000000000000000000081526004016101c290610af8565b60405180910390fd5b80600360006101000a81548173ffffffffffffffffffffffffffffffffffffffff021916908373ffffffffffffffffffffffffffffffffffffffff16021790555050565b610217610838565b73ffffffffffffffffffffffffffffffffffffffff166102356106cb565b73ffffffffffffffffffffffffffffffffffffffff161461028b576040517f08c379a000000000000000000000000000000000000000000000000000000000815260040161028290610af8565b60405180910390fd5b600260015414156102d1576040517f08c379a00000000000000000000000000000000000000000000000000000000081526004016102c890610b64565b60405180910390fd5b600260018190555060003373ffffffffffffffffffffffffffffffffffffffff16476040516102ff90610bb5565b60006040518083038185875af1925050503d806000811461033c576040519150601f19603f3d011682016040523d82523d6000602084013e610341565b606091505b5050905080610385576040517f08c379a000000000000000000000000000000000000000000000000000000000815260040161037c90610c16565b60405180910390fd5b5060018081905550565b600260015414156103d5576040517f08c379a00000000000000000000000000000000000000000000000000000000081526004016103cc90610b64565b60405180910390fd5b600260018190555080600260009054906101000a900473ffffffffffffffffffffffffffffffffffffffff1673ffffffffffffffffffffffffffffffffffffffff166370a08231336040518263ffffffff1660e01b81526004016104399190610a06565b60206040518083038186803b15801561045157600080fd5b505afa158015610465573d6000803e3d6000fd5b505050506040513d601f19601f820116820180604052508101906104899190610c4b565b10156104ca576040517f08c379a00000000000000000000000000000000000000000000000000000000081526004016104c190610cc4565b60405180910390fd5b6000600260009054906101000a900473ffffffffffffffffffffffffffffffffffffffff1673ffffffffffffffffffffffffffffffffffffffff166323b872dd33600360009054906101000a900473ffffffffffffffffffffffffffffffffffffffff16856040518463ffffffff1660e01b815260040161054d93929190610cf3565b602060405180830381600087803b15801561056757600080fd5b505af115801561057b573d6000803e3d6000fd5b505050506040513d601f19601f8201168201806040525081019061059f9190610d62565b9050806105e1576040517f08c379a00000000000000000000000000000000000000000000000000000000081526004016105d890610ddb565b60405180910390fd5b600460008154809291906105f490610e2a565b91905055507f78eaebe37a28490ff43ed0e95bdc47de1587156ac0069b652e1d2d9f42464e983383600454426040516106309493929190610e73565b60405180910390a1506001808190555050565b61064b610838565b73ffffffffffffffffffffffffffffffffffffffff166106696106cb565b73ffffffffffffffffffffffffffffffffffffffff16146106bf576040517f08c379a00000000000000000000000000000000000000000000000000000000081526004016106b690610af8565b60405180910390fd5b6106c96000610840565b565b60008060009054906101000a900473ffffffffffffffffffffffffffffffffffffffff16905090565b600260009054906101000a900473ffffffffffffffffffffffffffffffffffffffff1681565b610722610838565b73ffffffffffffffffffffffffffffffffffffffff166107406106cb565b73ffffffffffffffffffffffffffffffffffffffff1614610796576040517f08c379a000000000000000000000000000000000000000000000000000000000815260040161078d90610af8565b60405180910390fd5b600073ffffffffffffffffffffffffffffffffffffffff168173ffffffffffffffffffffffffffffffffffffffff161415610806576040517f08c379a00000000000000000000000000000000000000000000000000000000081526004016107fd90610f2a565b60405180910390fd5b61080f81610840565b50565b600360009054906101000a900473ffffffffffffffffffffffffffffffffffffffff1681565b600033905090565b60008060009054906101000a900473ffffffffffffffffffffffffffffffffffffffff169050816000806101000a81548173ffffffffffffffffffffffffffffffffffffffff021916908373ffffffffffffffffffffffffffffffffffffffff1602179055508173ffffffffffffffffffffffffffffffffffffffff168173ffffffffffffffffffffffffffffffffffffffff167f8be0079c531659141344cd1fd0a4f28419497f9722a3daafe3b4186f6b6457e060405160405180910390a35050565b600080fd5b600073ffffffffffffffffffffffffffffffffffffffff82169050919050565b600061093482610909565b9050919050565b61094481610929565b811461094f57600080fd5b50565b6000813590506109618161093b565b92915050565b60006020828403121561097d5761097c610904565b5b600061098b84828501610952565b91505092915050565b6000819050919050565b6109a781610994565b81146109b257600080fd5b50565b6000813590506109c48161099e565b92915050565b6000602082840312156109e0576109df610904565b5b60006109ee848285016109b5565b91505092915050565b610a0081610929565b82525050565b6000602082019050610a1b60008301846109f7565b92915050565b6000819050919050565b6000610a46610a41610a3c84610909565b610a21565b610909565b9050919050565b6000610a5882610a2b565b9050919050565b6000610a6a82610a4d565b9050919050565b610a7a81610a5f565b82525050565b6000602082019050610a956000830184610a71565b92915050565b600082825260208201905092915050565b7f4f776e61626c653a2063616c6c6572206973206e6f7420746865206f776e6572600082015250565b6000610ae2602083610a9b565b9150610aed82610aac565b602082019050919050565b60006020820190508181036000830152610b1181610ad5565b9050919050565b7f5265656e7472616e637947756172643a207265656e7472616e742063616c6c00600082015250565b6000610b4e601f83610a9b565b9150610b5982610b18565b602082019050919050565b60006020820190508181036000830152610b7d81610b41565b9050919050565b600081905092915050565b50565b6000610b9f600083610b84565b9150610baa82610b8f565b600082019050919050565b6000610bc082610b92565b9150819050919050565b7f5472616e73666572206661696c65642e00000000000000000000000000000000600082015250565b6000610c00601083610a9b565b9150610c0b82610bca565b602082019050919050565b60006020820190508181036000830152610c2f81610bf3565b9050919050565b600081519050610c458161099e565b92915050565b600060208284031215610c6157610c60610904565b5b6000610c6f84828501610c36565b91505092915050565b7f4e6f7420656e6f75676820746f6b656e73000000000000000000000000000000600082015250565b6000610cae601183610a9b565b9150610cb982610c78565b602082019050919050565b60006020820190508181036000830152610cdd81610ca1565b9050919050565b610ced81610994565b82525050565b6000606082019050610d0860008301866109f7565b610d1560208301856109f7565b610d226040830184610ce4565b949350505050565b60008115159050919050565b610d3f81610d2a565b8114610d4a57600080fd5b50565b600081519050610d5c81610d36565b92915050565b600060208284031215610d7857610d77610904565b5b6000610d8684828501610d4d565b91505092915050565b7f5075726368617365206661696c65642e00000000000000000000000000000000600082015250565b6000610dc5601083610a9b565b9150610dd082610d8f565b602082019050919050565b60006020820190508181036000830152610df481610db8565b9050919050565b7f4e487b7100000000000000000000000000000000000000000000000000000000600052601160045260246000fd5b6000610e3582610994565b91507fffffffffffffffffffffffffffffffffffffffffffffffffffffffffffffffff821415610e6857610e67610dfb565b5b600182019050919050565b6000608082019050610e8860008301876109f7565b610e956020830186610ce4565b610ea26040830185610ce4565b610eaf6060830184610ce4565b95945050505050565b7f4f776e61626c653a206e6577206f776e657220697320746865207a65726f206160008201527f6464726573730000000000000000000000000000000000000000000000000000602082015250565b6000610f14602683610a9b565b9150610f1f82610eb8565b604082019050919050565b60006020820190508181036000830152610f4381610f07565b905091905056fea2646970667358221220c1d6ed217cc38f27159d683387cfda576c20514f0be63936affde23d87ac9dec64736f6c63430008080033",
    "devdoc": {
        "kind": "dev",
        "methods": {
            "owner()": {
                "details": "Returns the address of the current owner."
            },
            "renounceOwnership()": {
                "details": "Leaves the contract without owner. It will not be possible to call `onlyOwner` functions anymore. Can only be called by the current owner. NOTE: Renouncing ownership will leave the contract without an owner, thereby removing any functionality that is only available to the owner."
            },
            "transferOwnership(address)": {
                "details": "Transfers ownership of the contract to a new account (`newOwner`). Can only be called by the current owner."
            }
        },
        "version": 1
    },
    "userdoc": {
        "kind": "user",
        "methods": {},
        "version": 1
    },
    "storageLayout": {
        "storage": [
            {
                "astId": 7,
                "contract": "contracts/SamotMKT.sol:SamotMKT",
                "label": "_owner",
                "offset": 0,
                "slot": "0",
                "type": "t_address"
            },
            {
                "astId": 115,
                "contract": "contracts/SamotMKT.sol:SamotMKT",
                "label": "_status",
                "offset": 0,
                "slot": "1",
                "type": "t_uint256"
            },
            {
                "astId": 569,
                "contract": "contracts/SamotMKT.sol:SamotMKT",
                "label": "samotToken",
                "offset": 0,
                "slot": "2",
                "type": "t_contract(IERC20)222"
            },
            {
                "astId": 571,
                "contract": "contracts/SamotMKT.sol:SamotMKT",
                "label": "admin",
                "offset": 0,
                "slot": "3",
                "type": "t_address"
            },
            {
                "astId": 574,
                "contract": "contracts/SamotMKT.sol:SamotMKT",
                "label": "paymentId",
                "offset": 0,
                "slot": "4",
                "type": "t_uint256"
            }
        ],
        "types": {
            "t_address": {
                "encoding": "inplace",
                "label": "address",
                "numberOfBytes": "20"
            },
            "t_contract(IERC20)222": {
                "encoding": "inplace",
                "label": "contract IERC20",
                "numberOfBytes": "20"
            },
            "t_uint256": {
                "encoding": "inplace",
                "label": "uint256",
                "numberOfBytes": "32"
            }
        }
    }
}